:020000020000FC
:100000000FEF0DBF08E00EBF0FEF04B9002705B9D1
:1000100000E00093C50007E60093C40000E10093F0
:10002000C10006E00093C2000091C00007FFFCCFB2
:100030001091C60015B901D0F7CFEAE5F0E025919F
:10004000203021F0211719F03296F9CF089535911B
:100050004491E22FF32F0994089546003C0042009A
:100060003E004C00400052004200530044002B0070
:1000700046002D004800000000000895000008958B
:1000800000000895000008950000089500000895FC
:0400900000000895CF
:00000001FF
