:020000020000FC
:1000000000C00FEF0DBF08E00EBF529A5398549AEC
:100010005A985C98002700938000009381000AD0D2
:1000200011D018F01BD02BD001C04FEF2FD000E51E
:1000300033D0F5CF5A9A02E3000000000A95E1F7A9
:100040005A9808951F9310E04B9905C01A95E1F74F
:100050001F91089408951F91889408950027009394
:1000600085000093840002E0009381004B9B01C057
:10007000FDCF00270093810020918400089544273C
:10008000243718F024574395FBCF08954A3010F4D5
:100090005C9A08955C9808950F931F932F9314E032
:1000A0002AEF2A95F1F71A95D9F70A95C1F72F91FA
:0600B0001F910F9108955D
:00000001FF
