:020000020000FC
:100000000FEF0DBF08E00EBF0FEF04B9002705B9D1
:1000100000E00093C50007E60093C40000E10093F0
:10002000C10006E00093C2000091C00007FFFCCFB2
:100030001091C60015B901D0F7CFECE5F0E025919D
:10004000203021F0211719F03396F9CF0895319619
:1000500045913491F42FE32F0994089546FF003D14
:1000600042FF003F4CFF004152FF004353FF004559
:100070002BFF00472DFF00490000000008950000FD
:1000800008950000089500000895000008950000FC
:0600900008950000089530
:00000001FF
