:020000020000FC
:0200000033C00B
:02002C00C1C051
:02004800B5C041
:100068000FEF0DBF08E00EBF01E0C02E66270CE7BA
:100078000AB900270BB900E104B900270BB903E856
:1000880004BD03E005BD02E800938000002700934B
:1000980081000AE60093880008E10093890000E0E7
:1000A8000093B0000093B10002E000936F007894D1
:1000B80000EA07BD5CD00AD011D018F018D02DD0B6
:1000C80002C04FEF2AD000E543D0F5CF2C9A12E3B7
:1000D800000000001A95E1F72C98089522271B9933
:1000E80004C02A95E1F70894089588940895002794
:1000F8000093B20007E00093B1001FEF1B9B07C0FD
:100108001A95E1F700270093B1004FEF08950027F3
:100118000093B1004091B20008954A3018F0662764
:1001280026D0089529D0603031F0613039F062303E
:1001380051F00CC008952AD02ED008C022D02BD060
:1001480020D029D003C01DD026D000C063950895C3
:100158000F931F932F9314E02AEF2A95F1F71A951E
:10016800D9F70A95C1F72F911F910F9108955A9ABF
:100178005B985C9A5D9808955A985B985C985D982E
:1001880008955A9A5B985C985D9A08955A985B9A74
:100198005C9A5D98089505E0009381000C11FECFEC
:1001A800002700938100089501E018950000189534
:00000001FF
