:020000020000FC
:0200000033C00B
:02002C00CAC048
:02004800BEC038
:100068000FEF0DBF08E00EBF01E0C02E66270CE7BA
:100078000AB900270BB900E104B9002705B903E85C
:1000880004BD03E005BD00270093800008E000934D
:1000980081000AE60093880008E10093890000E0E7
:1000A8000093B0000093B10002E000936F007894D1
:1000B80000EA07BD5FD00AD011D018F018D02ED0B2
:1000C80002C04FEF2BD000E546D0F5CF2C9A12E3B3
:1000D800000000001A95E1F72C98089522271B9933
:1000E80004C02A95E1F70894089588940895002794
:1000F8000093B20007E00093B1001B9B09C0009178
:10010800B2000A3FD0F300270093B1004FEF0895E3
:1001180000270093B1004091B20008954A3018F0CA
:10012800662728D008952BD0603029F0613039F047
:10013800623059F008952DD031D021D00AC024D092
:100148002DD022D02BD01BD004C01ED027D017D042
:1001580000C0639508950F931F932F9318E12AEF1A
:100168002A95F1F71A95D9F70A95C1F72F911F919A
:100178000F9108955A9A5B985C9A5D9808955A98D9
:100188005B985C985D9808955A9A5B985C985D9A1C
:1001980008955A985B9A5C9A5D9808950027009391
:1001A8008500009384000DE0009381005C11FECF70
:1001B800552708E000938100089551E01895000044
:0201C800189588
:00000001FF
