:020000020000FC
:0200000033C00B
:02002C001EC1F3
:0200480012C1E3
:100068000FEF0DBF08E00EBF01E0C02E71E066275C
:1000780081E091E00CE70AB900270BB900E104B967
:10008800002705B903E804BD03E005BD0027009378
:10009800800008E00093810008E1009389000AE6E7
:1000A8000093880000E00093B0000093B10002E0E4
:1000B80000936F00789400E00093C50007E6009372
:1000C800C40000E90093C10006E00093C20000EA02
:1000D80007BD8ED00BD012D020F025D03FD058D0FD
:1000E80002C04FEF55D000E574D0F4CF2C9A12E33C
:1000F800000000001A95E1F72C9808952227209314
:10010800B20021E027BB26E02093B1001B9909C06B
:1001180027B320FD01C0FACF22272093B10008940D
:1001280008958894089500270093B1000093B200C1
:1001380001E007BB06E00093B1001B9B09C007B3B1
:1001480000FD01C0FACF00270093B1004FEF0895DA
:1001580000270093B1004091B20008950F931F93B8
:100168002F930F921F92142F0AE0109F002D212D1C
:100178004427222311F4043228F0045208F42A9563
:100188004395F7CF1F900F902F911F910F910895CE
:100198004A3028F08913089566272AD008952DD06B
:1001A80006E917D0603029F0613039F0623059F033
:1001B80008952DD031D021D00AC024D02DD022D0FE
:1001C8002BD01BD004C01ED027D017D000C06395F9
:1001D80008950F931F932F9318E12AEF2A95F1F7AB
:1001E8001A95D9F70A95C1F72F911F910F91089584
:1001F8005A9A5B985C9A5D9808955A985B985C98AF
:100208005D9808955A9A5B985C985D9A08955A98F3
:100218005B9A5C9A5D980895002700938500009387
:1002280084000DE0009381005C11FECF552708E0A3
:10023800009381000895723099F0739504C070306E
:1002480079F07A9500C0703029F0713031F00FEFF5
:1002580007BD08950AE507BD089500EA07BD08959A
:10026800089551E018950F930FB70F931F932F938D
:100278003F934F93EF93FF930091C000202F2C7171
:100288001091C600222319F4103208F00AD0FF9109
:10029800EF914F913F912F911F910F910FBF0F91A8
:1002A8001895EAECF2E02591203021F0211719F099
:1002B8003396F9CF0895319645913491F42FE32F71
:1002C800099447FF017153FF016E2BFF011F2DFF9A
:1002D80001230000882791DF089581E089DF0895D0
:00000001FF
