:020000020000FC
:0200000033C00B
:02002C00A5C06D
:1000680008E00EBF0FEF0DBF0CE70AB900E00BB9AF
:1000780038983998409A419A03E804BD03E005BDD1
:100088000BE00093810000E00093890009EF0093E2
:10009800880002E000936F0000E00093000101E097
:1000A8000093010101E0009303010093050100277B
:1000B8000093020100930401009306014DD028D05B
:1000C80078940091060100FD05D00091060101FD1C
:1000D80010D0F7CF009100010395053008F000E03B
:1000E8000093000115D0009106010E7F00930601D0
:1000F8000895009101010395033008F000E0009392
:1001080001012AD0009106010D7F00930601089590
:1001180000910001013039F0023051F0033069F0EC
:10012800043081F014C05A9A5B985C9A5D980895DF
:100138005A985B9A5C985D9A08955A9A5B985C986D
:100148005D9A08955A985B9A5C9A5D9808955A98B2
:100158005B985C985D980895E4E7F1E000910101EF
:10016800E00F00E0F01F049107BD08955AA0FF00BA
:100178000F930FB70F933F9336B130FF07C0002797
:100188000093020101E00093030115C000910201F0
:10019800043188F4039500930201043160F0009162
:1001A8000301002341F00027009303010091060199
:1001B80001600093060131FF07C000270093040186
:1001C80001E00093050115C000910401043188F491
:1001D800039500930401043160F0009105010023A8
:1001E80041F0002700930501009106010260009389
:0C01F80006013F910F910FBF0F91189569
:00000001FF
